:100000000C9488000C94A5000C94A5000C94A500F9
:100010000C94A5000C94A5000C94A5000C94A500CC
:100020000C94A5000C94A5000C94A5000C94A500BC
:100030000C94A5000C94A5000C94A5000C94A500AC
:100040000C94A5000C94A5000C94A5000C94A5009C
:100050000C94A5000C94A5000C94A5000C94A5008C
:100060000C94A5000C94A50007040D040D040D04C8
:100070000D040D040D040D040D040D040D040D04F8
:100080000D040D040D040D040D040D040D040D04E8
:100090000D040D040D040D040D040D040D040D04D8
:1000A0000D04DD034E0371030D04EF030D040D0475
:1000B0000D040D040D040D040D040D040D040D04B8
:1000C0000D040D04FC030D049E030D040D04BC037C
:1000D0000D040D040D040D040D040D040D040D0498
:1000E0000D04CB034E0358030D04EF030D040D0460
:1000F0000D040D040D040D040D040D040D040D0478
:100100000D040D04FC030D048F030D040D04AD0359
:1001100011241FBECFEFD8E0DEBFCDBF13E0A0E0BB
:10012000B1E0E0E5FFE002C005900D92A433B10715
:10013000D9F723E0A4E3B3E001C01D92A733B207CF
:10014000E1F70E943D050C94A6070C940000E9EB32
:10015000F0E080818C7F808388E48093B8000895EC
:1001600080933403ECEBF0E08081846A808380919B
:10017000BC008823E4F78091B900887F883011F0B3
:10018000803111F48FEF08958EEF089590E0880F7D
:10019000991F90913403892B8093BB0084E880934E
:1001A000BC008091BC008823E4F780913403811166
:1001B00007C08091B900887F883159F48FEF089586
:1001C000813049F48091B900887F803431F48FEF19
:1001D00008958EEF089580E008958EEF089580933E
:1001E000BB00ECEBF0E08081806880838091BC00F4
:1001F0008823E4F78091B900887F883211F48FEF6B
:1002000008958EEF0895ECEBF0E0808180698083A3
:100210008091BC0084FDFCCF0895CF93C82F80E06F
:100220000E94B0008C2F0E94C600CF9108950E94BA
:10023000030108950E94EF000895CF93C82F8CE327
:100240000E940D0180E00E941A018C2F0E941A0169
:100250000E941701CF910895CF93DF9381E20E940E
:100260001D0180E00E941D018FE70E941D0182E2B6
:100270000E941D0180E00E941D0187E00E941D0177
:100280008CE30E940D0180E40E941A01C0E0D0E0DE
:1002900004C080E00E941A012196C11584E0D807AD
:1002A000C4F381E20E941D0180E00E941D018FE7DE
:1002B0000E941D0182E20E941D0180E00E941D013A
:1002C00087E00E941D018CE30E940D0180E40E94E2
:1002D0001A01DF91CF9108950E94A7008EEA0E9433
:1002E0001D0185ED0E941D0180E80E941D0188EA24
:1002F0000E941D018FE30E941D0183ED0E941D01DC
:1003000080E00E941D0180E40E941D018DE80E9492
:100310001D0184E10E941D0180E20E941D0180E018
:100320000E941D0181EA0E941D0188EC0E941D01AE
:100330008AED0E941D0182E10E941D0181E80E9458
:100340001D018FEC0E941D0189ED0E941D0181EFAE
:100350000E941D018BED0E941D0180E40E941D0181
:1003600084EA0E941D0186EA0E941D018FEA0E9414
:100370001D010E942C010895CF93DF93883000F572
:100380006623F4F0D62FC82F80933503609336038D
:1003900081E20E941D018D2F0E941D018FE70E94A6
:1003A0001D0182E20E941D018C2F0E941D0187E029
:1003B0000E941D018CE30E940D0180E40E941A013D
:1003C000DF91CF910895809135038F5F877080937F
:1003D000350360E00E94BC010895CF93DF93D82FCE
:1003E0008091360390E005968038910514F4DA3058
:1003F00011F40E94E301DA3011F1D052C0E02D2F48
:1004000030E0F901EE0FFF1FEE0FFF1FE20FF31FA9
:10041000E35FFE4FEC0FF11D80810E941A01909165
:1004200036039F5F90933603CF5FC53041F780E07E
:100430000E941A01809136038F5F80933603DF910B
:10044000CF910895CF93DF93EC0103C021960E94D2
:10045000ED0188818111FACFDF91CF9108954F92FC
:100460005F926F927F92AF92BF92CF92DF92EF92A4
:10047000FF920F931F93CF93DF93CDB7DEB72A97E9
:100480000FB6F894DEBF0FBECDBFA82E6A017B0168
:10049000022F82E0A81220C01CC0802F90E001979C
:1004A00041E050E002C0440F551F8A95E2F7052E47
:1004B000000C660B770B4C215D216E217F2181E0C2
:1004C000452B462B472B09F480E0805D0E94ED010F
:1004D00001500111E2CF52C0452B462B472B39F07A
:1004E00010E035C080E30E94ED011F5F01C010E005
:1004F000101708F043C01A30A8F340C0C114D1044B
:10050000E104F104D1F0BC2C4A2C512C612C712C4B
:10051000C701B601A30192010E94E106C22ED32EAB
:10052000E42EF52EE1E0F0E0EC0FFD1FE10FF11DF0
:10053000A29EB0181124B08209C00B30E8F4E1E0AB
:10054000F0E0EC0FFD1FE10FF11D10821F5F10178F
:10055000A8F212C0E12FF0E0319781E090E08C0F1B
:100560009D1FE80FF91F80818A3010F0895C01C05F
:10057000805D0E94ED0111501111ECCF2A960FB64B
:10058000F894DEBF0FBECDBFDF91CF911F910F91C9
:10059000FF90EF90DF90CF90BF90AF907F906F90E3
:1005A0005F904F9008958F929F92AF92BF92CF929B
:1005B000DF92EF92FF926B017C010E94B7054B0125
:1005C0005C012FEFAB01BC018AE00E942F028EE29A
:1005D0000E94ED01C501B4010E94E6059B01AC013A
:1005E000C701B6010E944A0520E034E244E759E41D
:1005F0000E9474060E94B705AB01BC012FEF8AE090
:100600000E942F02FF90EF90DF90CF90BF90AF90AD
:100610009F908F9008954F925F926F927F92AF92CA
:10062000BF92EF92FF921F93CF93DF93CDB7DEB7C8
:10063000FE013E96E190F1903F01F2C0853209F053
:10064000EAC0C7010196D7011196EC9120ED2E0F5B
:100650002A3090F07C011FEF15C0812F880F982F52
:10066000990F990F890F8E0F10ED180FBFEFEB1A2E
:10067000FB0AD701EC9102C07C0110E080ED8E0FE7
:100680008A3058F38E2F90E0FC01B597E435F105E0
:1006900008F0C3C0EC5CFF4F0C9403075301B2E0B9
:1006A000AB0EB11CF30180810E94ED013501B5C094
:1006B0005301F2E0AF0EB11CD3016D907C90772016
:1006C00034F47194619471088DE20E94ED01A301EC
:1006D000770C660B770B212F8AE00E942F023501E1
:1006E0009CC05301B4E0AB0EB11CF30140805180BB
:1006F0006280738077205CF470946094509440948E
:10070000411C511C611C711C8DE20E94ED01212FC6
:10071000B301A2018AE00E942F0235017EC053017D
:10072000F2E0AF0EB11CD3014D915C9160E070E03E
:10073000212F8AE00E942F0235016FC05301B4E0DF
:10074000AB0EB11CF3014081518162817381212F75
:100750008AE00E942F02350160C05301F2E0AF0E23
:10076000B11CD3014D915C9160E070E0212F80E1DC
:100770000E942F02350151C05301B4E0AB0EB11CF1
:10078000F3014081518162817381212F80E10E94B8
:100790002F02350142C05301F2E0AF0EB11CD3016C
:1007A0004D915C911F3F09F410E160E070E0212F52
:1007B00082E00E942F02350130C05301B4E0AB0E3D
:1007C000B11CF30140815181628173811F3F09F4A3
:1007D00010E1212F82E00E942F0235011EC053013B
:1007E000F4E0AF0EB11CD3016D917D918D919C9180
:1007F0000E94D302350111C05301B2E0AB0EB11C0F
:10080000F301808191810E942202350106C085E2B8
:100810000E94ED0102C00E94ED01FFEFEF1AFF0AF6
:10082000D7018C9181110ACFDF91CF911F91FF9059
:10083000EF90BF90AF907F906F905F904F90089532
:10084000EF92FF920F931F93CF93DF93E82EF62E34
:10085000D0E02DC08F2D8695869586950D2F10E0C2
:100860009801280F311D2230310504F16E2D8D0FB6
:100870000E94BC018CE390E00E940D0180E490E0B6
:100880000E941A01C0E010C0F801E295F295F07FD5
:10089000FE27E07FFE27EC0FF11DEC5EFC4F808110
:1008A00090E00E941A01CF5FC03170F3DF5FD23059
:1008B00088F2F694F694F6948F2D90E002960297C3
:1008C000BCF067E06E0D82E08F0D0E94BC018CE3EE
:1008D00090E00E940D0180E490E00E941A01C0E0C7
:1008E00005C080E890E00E941A01CF5FC330C8F3D2
:1008F000DF91CF911F910F91FF90EF900895CF93CB
:10090000DF93CDB7DEB729970FB6F894DEBF0FBEE1
:10091000CDBF89E0E4E0F1E0DE01119601900D9297
:100920008A95E1F760E080E00E94BC0188EE92E0E9
:100930009F938F930E940B0360E081E00E94BC01B3
:100940008EEF92E09F938F930E940B030F900F9076
:100950000F900F9000E084C0E02EF12CF701EE0F15
:10096000FF1FEE0DFF1D21E030E02C0F3D1FE20FB9
:10097000F31F22812034E0F5F701EE0FFF1FEE0D8B
:10098000FF1D81E090E08C0F9D1FE80FF91F818112
:10099000281771F130E0215F3F4FC90199230CF412
:1009A0000796959587959595879595958795823026
:1009B000F8F0F701EE0FFF1FEE0DFF1D21E030E014
:1009C0002C0F3D1FE20FF31F60810E94BC018CE3DE
:1009D00090E00E940D0180E490E00E941A0110E076
:1009E00005C080E090E00E941A011F5F1031C8F33B
:1009F000F701EE0FFF1FEE0DFF1D81E090E08C0F61
:100A00009D1FE80FF91F81818283815081838111AD
:100A10000DC0F701EE0FFF1FEE0DFF1D21E030E0CE
:100A20002C0F3D1FE20FF31F80E48183F701EE0FCF
:100A3000FF1FEE0DFF1D81E090E08C0F9D1FE80F62
:100A4000F91F6181603458F4F701EE0FFF1FEE0EBD
:100A5000FF1EFC01EE0DFF1D80810E9420040F5F30
:100A6000033008F479CF9FEF21EE34E0915020401D
:100A70003040E1F700C000006DCF0E946C010E9481
:100A80002C018AE290E00E945A0778940E942C017F
:100A90000E947F045058BB27AA270E9462050C942D
:100AA0003A060E942C0638F00E94330620F039F4F2
:100AB0009F3F19F426F40C9429060EF4E095E7FB09
:100AC0000C942306E92F0E944B0658F3BA176207CD
:100AD00073078407950720F079F4A6F50C946D064A
:100AE0000EF4E0950B2EBA2FA02D0B01B901900149
:100AF0000C01CA01A0011124FF27591B99F0593F8D
:100B000050F4503E68F11A16F040A22F232F342FD4
:100B10004427585FF3CF469537952795A795F04022
:100B20005395C9F77EF41F16BA0B620B730B840B37
:100B3000BAF09150A1F0FF0FBB1F661F771F881FEF
:100B4000C2F70EC0BA0F621F731F841F48F4879547
:100B500077956795B795F7959E3F08F0B0CF939539
:100B6000880F08F09927EE0F9795879508950E94B2
:100B7000530688F09F5798F0B92F9927B751B0F0D6
:100B8000E1F0660F771F881F991F1AF0BA95C9F711
:100B900014C0B13091F00E946D06B1E008950C943C
:100BA0006D06672F782F8827B85F39F0B93FCCF3EF
:100BB000869577956795B395D9F73EF4909580958E
:100BC000709561957F4F8F4F9F4F0895E89409C0AE
:100BD00097FB3EF490958095709561957F4F8F4F70
:100BE0009F4F9923A9F0F92F96E9BB279395F69586
:100BF000879577956795B795F111F8CFFAF4BB0F04
:100C000011F460FF1BC06F5F7F4F8F4F9F4F16C067
:100C1000882311F096E911C0772321F09EE8872FF1
:100C2000762F05C0662371F096E8862F70E060E0AD
:100C30002AF09A95660F771F881FDAF7880F969526
:100C4000879597F9089597F99F6780E870E060E0CD
:100C500008959FEF80EC089500240A941616170655
:100C600018060906089500240A941216130614069D
:100C700005060895092E0394000C11F4882352F000
:100C8000BB0F40F4BF2B11F460FF04C06F5F7F4FB8
:100C90008F4F9F4F089557FD9058440F551F59F09F
:100CA0005F3F71F04795880F97FB991F61F09F3F59
:100CB00079F087950895121613061406551FF2CF82
:100CC0004695F1DF08C0161617061806991FF1CFD2
:100CD00086957105610508940895E894BB276627F9
:100CE0007727CB0197F908950E9487060C943A065E
:100CF0000E942C0638F00E94330620F0952311F054
:100D00000C9423060C94290611240C946E060E9460
:100D10004B0670F3959FC1F3950F50E0551F629FEE
:100D2000F001729FBB27F00DB11D639FAA27F00D44
:100D3000B11DAA1F649F6627B00DA11D661F829F6B
:100D40002227B00DA11D621F739FB00DA11D621F50
:100D5000839FA00D611D221F749F3327A00D611D6D
:100D6000231F849F600D211D822F762F6A2F11244F
:100D70009F5750409AF0F1F088234AF0EE0FFF1F82
:100D8000BB1F661F771F881F91505040A9F79E3FD9
:100D9000510580F00C9423060C946E065F3FE4F33B
:100DA000983ED4F3869577956795B795F795E7952F
:100DB0009F5FC1F7FE2B880F911D9695879597F938
:100DC0000895A1E21A2EAA1BBB1BFD010DC0AA1F8C
:100DD000BB1FEE1FFF1FA217B307E407F50720F0A4
:100DE000A21BB30BE40BF50B661F771F881F991F1F
:100DF0001A9469F760957095809590959B01AC0168
:100E0000BD01CF010895EE0FFF1F0590F491E02D75
:100E100009948F929F92AF92BF92CF92DF92EF92FE
:100E2000FF92CF93DF93EC01688179818A819B8166
:100E3000611571058105910521F464E279ED8BE579
:100E400097E02DE133EF41E050E00E946507490152
:100E50005A019B01AC01A7EAB1E40E9484076B012F
:100E60007C01ACEEB4EFA50194010E949207DC0175
:100E7000CB018C0D9D1DAE1DBF1DB7FF03C001979B
:100E8000A109B04888839983AA83BB839F77DF91A8
:100E9000CF91FF90EF90DF90CF90BF90AF909F9059
:100EA0008F9008950E940907089580E091E00E94C4
:100EB00009070895A0E0B0E080930001909301013C
:100EC000A0930201B09303010895052E97FB1EF431
:100ED00000940E947C0757FD07D00E94E10607FCA2
:100EE00003D04EF40C947C07509540953095219595
:100EF0003F4F4F4F5F4F0895909580957095619546
:100F00007F4F8F4F9F4F08950E949707A59F900D89
:100F1000B49F900DA49F800D911D11240895B7FFDB
:100F20000C9484070E948407821B930B0895A29F50
:100F3000B001B39FC001A39F700D811D1124911DAD
:100F4000B29F700D811D1124911D0895F894FFCF5B
:100F5000010000001E404038404052404000000068
:100F6000000000002F00000007000700147F147F1E
:100F700014242A7F2A12231308646236495522500A
:100F80000005030000001C2241000041221C001447
:100F9000083E081408083E08080000A06000080881
:100FA000080808006060000020100804023E514953
:100FB000453E00427F400042615149462141454B38
:100FC000311814127F1027454545393C4A494930AC
:100FD00001710905033649494936064949291E0068
:100FE0003636000000563600000814224100141462
:100FF00014141400412214080201510906324959FF
:10100000513E7C1211127C7F494949363E41414193
:10101000227F4141221C7F494949417F0909090139
:101020003E4149497A7F0808087F00417F410020FE
:1010300040413F017F081422417F404040407F02F1
:101040000C027F7F0408107F3E4141413E7F090929
:1010500009063E4151215E7F091929464649494901
:101060003101017F01013F4040403F1F2040201FD0
:101070003F4038403F631408146307087008076155
:1010800051494543007F41410055AA55AA550041A9
:10109000417F00040201020440404040400003053B
:1010A000000020545454787F484444383844444421
:1010B00020384444487F3854545418087E090102AB
:1010C00018A4A4A47C7F0804047800447D40004058
:1010D00080847D007F1028440000417F40007C0414
:1010E0001804787C080404783844444438FC2424E8
:1010F000241818242418FC7C080404084854545468
:1011000020043F4440203C4040207C1C2040201CC8
:101110003C4030403C44281028441CA0A0A07C4403
:1011200064544C4400107C82000000FF00000082E8
:101130007C100000060909064841505059204249D8
:101140005254484441592048414E4E4148002121C3
:10115000212121212121212121212121212121217F
:10116000212121000000008001C003E007F007F00A
:101170000FF80FF80FF807F007F003E001C0018047
:041180000180018069
:00000001FF
